:100000000C942A000C94A1040C94E5040C943C007C
:100010000C943C000C943C000C943C000C943C0070
:100020000C943C000C943C000C943C000C943C0060
:100030000C943C000C943C000C943C000C943C0050
:100040000C943C000C943C000C943C000C943C0040
:100050000C943C0011241FBECFE5D8E0DEBFCDBF1D
:1000600010E0A0E6B0E001C01D92A236B107E1F7B2
:100070000E94D4040C9411050C940000DF93CF93DC
:10008000CDB7DEB72D970FB6F894DEBF0FBECDBF4C
:1000900089836A834B838981282F30E03D872C87B1
:1000A0008C859D858130910509F47BC02C853D852B
:1000B000223031052CF48C859D85009771F09CC110
:1000C0002C853D852230310509F4CFC08C859D8576
:1000D0008330910509F42DC18FC18B81282F30E029
:1000E0003B872A878A859B8581309105F1F02A8597
:1000F0003B852230310571F18A859B85009709F097
:100100007BC1AAE3B0E0EAE3F0E08081482F8A8176
:10011000282F30E081E090E0022E02C0880F991F66
:100120000A94E2F7842B8C9367C1AAE3B0E0EAE378
:10013000F0E08081482F8A81282F30E081E090E034
:10014000022E02C0880F991F0A94E2F7809584233B
:100150008C9352C1AAE3B0E0EAE3F0E08081482F3B
:100160008A81282F30E081E090E002C0880F991F3B
:100170002A95E2F7809584238C93ABE3B0E0EBE320
:10018000F0E08081482F8A81282F30E081E090E0E4
:10019000022E02C0880F991F0A94E2F7842B8C93D9
:1001A0002BC18B81282F30E0398728878885998556
:1001B00081309105F1F0288539852230310571F1C2
:1001C00088859985009709F017C1A7E3B0E0E7E3B8
:1001D000F0E08081482F8A81282F30E081E090E094
:1001E000022E02C0880F991F0A94E2F7842B8C9389
:1001F00003C1A7E3B0E0E7E3F0E08081482F8A8104
:10020000282F30E081E090E0022E02C0880F991F75
:100210000A94E2F7809584238C93EEC0A7E3B0E0C4
:10022000E7E3F0E08081482F8A81282F30E081E0E9
:1002300090E002C0880F991F2A95E2F780958423E9
:100240008C93A8E3B0E0E8E3F0E08081482F8A8156
:10025000282F30E081E090E0022E02C0880F991F25
:100260000A94E2F7842B8C93C7C08B81282F30E04F
:100270003F832E838E819F8181309105F1F02E8105
:100280003F812230310571F18E819F81009709F005
:10029000B3C0A4E3B0E0E4E3F0E08081482F8A81BA
:1002A000282F30E081E090E0022E02C0880F991FD5
:1002B0000A94E2F7842B8C939FC0A4E3B0E0E4E3BC
:1002C000F0E08081482F8A81282F30E081E090E0A3
:1002D000022E02C0880F991F0A94E2F780958423AA
:1002E0008C938AC0A4E3B0E0E4E3F0E08081482F7F
:1002F0008A81282F30E081E090E002C0880F991FAA
:100300002A95E2F7809584238C93A5E3B0E0E5E39A
:10031000F0E08081482F8A81282F30E081E090E052
:10032000022E02C0880F991F0A94E2F7842B8C9347
:1003300063C08B81282F30E03D832C838C819D818D
:1003400081309105F1F02C813D812230310571F130
:100350008C819D81009709F04FC0A1E3B0E0E1E3FB
:10036000F0E08081482F8A81282F30E081E090E002
:10037000022E02C0880F991F0A94E2F7842B8C93F7
:100380003BC0A1E3B0E0E1E3F0E08081482F8A8147
:10039000282F30E081E090E0022E02C0880F991FE4
:1003A0000A94E2F7809584238C9326C0A1E3B0E001
:1003B000E1E3F0E08081482F8A81282F30E081E05E
:1003C00090E002C0880F991F2A95E2F78095842358
:1003D0008C93A2E3B0E0E2E3F0E08081482F8A81D1
:1003E000282F30E081E090E0022E02C0880F991F94
:1003F0000A94E2F7842B8C932D960FB6F894DEBF07
:100400000FBECDBFCF91DF910895DF93CF9300D082
:1004100000D00F92CDB7DEB789836A834B83898181
:10042000282F30E03D832C834C815D814130510584
:1004300009F440C08C819D81823091052CF4EC81BF
:10044000FD81309771F0B0C02C813D8122303105A3
:1004500009F459C04C815D814330510509F47CC0D9
:10046000A3C06BE370E08B81282F30E08A81882F56
:1004700090E0F90102C0EE0FFF1F8A95E2F7CF016D
:10048000582FABE3B0E0EBE3F0E08081482F8A81A6
:10049000282F30E081E090E0022E02C0880F991FE3
:1004A0000A94E2F7809584238C938C91852BFB0131
:1004B00080837AC068E370E08B81282F30E08A81E6
:1004C000882F90E0A90102C0440F551F8A95E2F7DA
:1004D000CA01582FA8E3B0E0E8E3F0E08081482F9C
:1004E0008A81282F30E081E090E0022E02C0880F40
:1004F000991F0A94E2F7809584238C938C91852B25
:10050000FB01808351C065E370E08B81282F30E0D0
:100510008A81882F90E0A90102C0440F551F8A9557
:10052000E2F7CA01582FA5E3B0E0E5E3F0E08081EF
:10053000482F8A81282F30E081E090E0022E02C00F
:10054000880F991F0A94E2F7809584238C938C91ED
:10055000852BFB01808328C062E370E08B81282F0C
:1005600030E08A81882F90E0A90102C0440F551F16
:100570008A95E2F7CA01582FA2E3B0E0E2E3F0E087
:100580008081482F8A81282F30E081E090E0022E80
:1005900002C0880F991F0A94E2F7809584238C93F8
:1005A0008C91852BFB0180830F900F900F900F9003
:1005B0000F90CF91DF910895DF93CF93CDB7DEB742
:1005C0002C970FB6F894DEBF0FBECDBF89836A8328
:1005D0008981282F30E03C872B878B859C85813053
:1005E0009105E1F12B853C85223031052CF48B857A
:1005F0009C85009771F09EC02B853C85223031058B
:1006000009F451C08B859C858330910509F46FC036
:1006100091C08A81282F30E03A87298789859A8579
:100620008130910579F029853A852230310571F0C4
:1006300089859A85009709F07DC0EAE3F0E08FEFA5
:10064000808378C0EAE3F0E0108274C0EAE3F0E06F
:100650001082EBE3F0E08FEF80836CC08A81282F5B
:1006600030E038872F838F8198858130910579F02C
:100670002F8138852230310571F08F819885009760
:1006800009F058C0E7E3F0E08FEF808353C0E7E361
:10069000F0E010824FC0E7E3F0E01082E8E3F0E022
:1006A0008FEF808347C08A81282F30E03E832D83DF
:1006B0008D819E818130910571F02D813E812230A6
:1006C000310569F08D819E810097A1F5E4E3F0E0AA
:1006D0008FEF80832FC0E4E3F0E010822BC0E4E3CF
:1006E000F0E01082E5E3F0E08FEF808323C08A81A1
:1006F000282F30E03C832B838B819C8181309105B6
:1007000071F02B813C812230310569F08B819C8115
:10071000009781F4E1E3F0E08FEF80830BC0E1E329
:10072000F0E0108207C0E1E3F0E01082E2E3F0E0E5
:100730008FEF80832C960FB6F894DEBF0FBECDBF2F
:10074000CF91DF910895DF93CF9300D000D00F9227
:10075000CDB7DEB78A836B8319828A81282F30E078
:100760003D832C838C819D8181309105D1F02C813A
:100770003D81223031052CF48C819D81009761F000
:100780001FC02C813D812230310581F08C819D81FB
:100790008330910581F014C0EBE3F0E08B8180831E
:1007A00011C0E8E3F0E08B8180830CC0E5E3F0E06A
:1007B0008B81808307C0E2E3F0E08B81808302C0FD
:1007C00081E0898389810F900F900F900F900F9097
:1007D000CF91DF910895DF93CF9300D000D0CDB7B4
:1007E000DEB789836A838981282F30E03C832B839D
:1007F0008B819C818130910549F12B813C81223094
:1008000031052CF48B819C81009761F05AC02B81BB
:100810003C812230310571F18B819C8183309105BF
:10082000E9F14FC0ABE3B0E0EBE3F0E08081482FAB
:100830008A81282F30E081E090E0022E02C0880FEC
:10084000991F0A94E2F784278C933BC0A8E3B0E099
:10085000E8E3F0E08081482F8A81282F30E081E0B2
:1008600090E0022E02C0880F991F0A94E2F78427B5
:100870008C9327C0A5E3B0E0E5E3F0E08081482F4A
:100880008A81282F30E081E090E0022E02C0880F9C
:10089000991F0A94E2F784278C9313C0A2E3B0E077
:1008A000E2E3F0E08081482F8A81282F30E081E068
:1008B00090E0022E02C0880F991F0A94E2F7842765
:1008C0008C930F900F900F900F90CF91DF91089520
:1008D000DF93CF93CDB7DEB7A5E5B0E0E5E5F0E077
:1008E00080818B7F8C93A5E5B0E0E5E5F0E0808129
:1008F00088608C93ABE5B0E0EBE5F0E08081806848
:100900008C93AFE5B0E0EFE5F0E0808180688C93F8
:10091000CF91DF910895DF93CF9300D0CDB7DEB7AD
:100920009A83898389819A81009731F089819A819C
:1009300090936100809360000F900F90CF91DF91B2
:1009400008951F920F920FB60F9211242F933F9389
:100950004F935F936F937F938F939F93AF93BF93C7
:10096000EF93FF93DF93CF93CDB7DEB78091600015
:1009700090916100009729F0E0916000F091610092
:100980000995CF91DF91FF91EF91BF91AF919F9129
:100990008F917F916F915F914F913F912F910F9028
:1009A0000FBE0F901F901895DF93CF93CDB7DEB792
:1009B00082E060E040E00E943E0083E063E042E0CD
:1009C0000E943E000E946804FFCF1F920F920FB654
:1009D0000F9211242F933F934F935F936F937F93C5
:1009E0008F939F93AF93BF93EF93FF93DF93CF9337
:1009F000CDB7DEB782E060E00E94EB03CF91DF91DC
:100A0000FF91EF91BF91AF919F918F917F916F91E6
:100A10005F914F913F912F910F900FBE0F901F90BC
:060A20001895F894FFCFC9
:00000001FF
